{
  "contractName": "LaunchpadFactory",
  "abi": [
    {
      "anonymous": false,
      "inputs": [
        {
          "indexed": true,
          "internalType": "uint256",
          "name": "crowdsaleIndex",
          "type": "uint256"
        },
        {
          "indexed": true,
          "internalType": "address",
          "name": "crowdsaleAddress",
          "type": "address"
        },
        {
          "indexed": false,
          "internalType": "contract IERC20",
          "name": "token",
          "type": "address"
        },
        {
          "indexed": true,
          "internalType": "uint256",
          "name": "crowdsaleStartTime",
          "type": "uint256"
        }
      ],
      "name": "CrowdsaleLaunched",
      "type": "event"
    },
    {
      "inputs": [],
      "name": "crowdsaleIndex",
      "outputs": [
        {
          "internalType": "uint256",
          "name": "",
          "type": "uint256"
        }
      ],
      "stateMutability": "view",
      "type": "function"
    },
    {
      "inputs": [
        {
          "internalType": "uint256",
          "name": "",
          "type": "uint256"
        }
      ],
      "name": "crowdsales",
      "outputs": [
        {
          "internalType": "address",
          "name": "crowdsaleAddress",
          "type": "address"
        },
        {
          "internalType": "contract IERC20",
          "name": "tokenAddress",
          "type": "address"
        },
        {
          "internalType": "address",
          "name": "owner",
          "type": "address"
        }
      ],
      "stateMutability": "view",
      "type": "function"
    },
    {
      "inputs": [
        {
          "internalType": "contract IERC20",
          "name": "_tokenAddress",
          "type": "address"
        },
        {
          "internalType": "uint256",
          "name": "_amountAllocation",
          "type": "uint256"
        },
        {
          "internalType": "address",
          "name": "_owner",
          "type": "address"
        },
        {
          "internalType": "uint256",
          "name": "_rate",
          "type": "uint256"
        },
        {
          "internalType": "uint256",
          "name": "_crowdsaleStartTime",
          "type": "uint256"
        },
        {
          "internalType": "uint256",
          "name": "_crowdsaleEndTime",
          "type": "uint256"
        },
        {
          "internalType": "uint256",
          "name": "_vestingStartTime",
          "type": "uint256"
        },
        {
          "internalType": "uint256",
          "name": "_vestingEndTime",
          "type": "uint256"
        },
        {
          "internalType": "uint256",
          "name": "_cliffDurationInSecs",
          "type": "uint256"
        }
      ],
      "name": "launchCrowdsale",
      "outputs": [
        {
          "internalType": "address",
          "name": "",
          "type": "address"
        }
      ],
      "stateMutability": "nonpayable",
      "type": "function"
    }
  ],
  "bytecode": "0x608060405234801561001057600080fd5b50613b45806100206000396000f3fe608060405234801561001057600080fd5b50600436106100415760003560e01c806317dd119c146100465780637fd4dbe814610064578063b90e854e14610139575b600080fd5b61004e6101cb565b6040518082815260200191505060405180910390f35b61010d600480360361012081101561007b57600080fd5b81019080803573ffffffffffffffffffffffffffffffffffffffff16906020019092919080359060200190929190803573ffffffffffffffffffffffffffffffffffffffff1690602001909291908035906020019092919080359060200190929190803590602001909291908035906020019092919080359060200190929190803590602001909291905050506101d1565b604051808273ffffffffffffffffffffffffffffffffffffffff16815260200191505060405180910390f35b6101656004803603602081101561014f57600080fd5b8101908080359060200190929190505050610820565b604051808473ffffffffffffffffffffffffffffffffffffffff1681526020018373ffffffffffffffffffffffffffffffffffffffff1681526020018273ffffffffffffffffffffffffffffffffffffffff168152602001935050505060405180910390f35b60015481565b60006101dc8a6108b7565b42861015610235576040517f08c379a0000000000000000000000000000000000000000000000000000000008152600401808060200182810382526038815260200180613a726038913960400191505060405180910390fd5b858511806102435750600085145b610298576040517f08c379a00000000000000000000000000000000000000000000000000000000081526004018080602001828103825260468152602001806139fc6046913960600191505060405180910390fd5b600089116102f1576040517f08c379a00000000000000000000000000000000000000000000000000000000081526004018080602001828103825260278152602001806139d56027913960400191505060405180910390fd5b600073ffffffffffffffffffffffffffffffffffffffff168a73ffffffffffffffffffffffffffffffffffffffff161415610394576040517f08c379a00000000000000000000000000000000000000000000000000000000081526004018080602001828103825260158152602001807f496e76616c696420546f6b656e2061646472657373000000000000000000000081525060200191505060405180910390fd5b6000871161040a576040517f08c379a00000000000000000000000000000000000000000000000000000000081526004018080602001828103825260138152602001807f526174652063616e6e6f74206265205a65726f0000000000000000000000000081525060200191505060405180910390fd5b6000851415610424576000935060009250600091506104f1565b858511156104f05784841015610485576040517f08c379a0000000000000000000000000000000000000000000000000000000008152600401808060200182810382526042815260200180613aaa6042913960600191505060405180910390fd5b610498828561095d90919063ffffffff16565b83116104ef576040517f08c379a0000000000000000000000000000000000000000000000000000000008152600401808060200182810382526030815260200180613a426030913960400191505060405180910390fd5b5b5b6104fd8a33308c610979565b6000883060405161050d90610d41565b808373ffffffffffffffffffffffffffffffffffffffff1681526020018273ffffffffffffffffffffffffffffffffffffffff16815260200192505050604051809103906000f080158015610566573d6000803e3d6000fd5b5090506105748b828c610b5e565b8073ffffffffffffffffffffffffffffffffffffffff166388989d0e8c8c8b8b8b8b8b8b6040518963ffffffff1660e01b8152600401808973ffffffffffffffffffffffffffffffffffffffff16815260200188815260200187815260200186815260200185815260200184815260200183815260200182815260200198505050505050505050600060405180830381600087803b15801561061557600080fd5b505af1158015610629573d6000803e3d6000fd5b50505050610635610d4e565b60405180606001604052808373ffffffffffffffffffffffffffffffffffffffff1681526020018d73ffffffffffffffffffffffffffffffffffffffff1681526020018b73ffffffffffffffffffffffffffffffffffffffff168152509050600081908060018154018082558091505060019003906000526020600020906003020160009091909190915060008201518160000160006101000a81548173ffffffffffffffffffffffffffffffffffffffff021916908373ffffffffffffffffffffffffffffffffffffffff16021790555060208201518160010160006101000a81548173ffffffffffffffffffffffffffffffffffffffff021916908373ffffffffffffffffffffffffffffffffffffffff16021790555060408201518160020160006101000a81548173ffffffffffffffffffffffffffffffffffffffff021916908373ffffffffffffffffffffffffffffffffffffffff1602179055505050878273ffffffffffffffffffffffffffffffffffffffff166001547f44ddbfbbe94966b870f5102e071704f63aacfaa2174c1d776495efda1acf351d8f604051808273ffffffffffffffffffffffffffffffffffffffff16815260200191505060405180910390a460016000815480929190600101919050555050509998505050505050505050565b6000818154811061082d57fe5b90600052602060002090600302016000915090508060000160009054906101000a900473ffffffffffffffffffffffffffffffffffffffff16908060010160009054906101000a900473ffffffffffffffffffffffffffffffffffffffff16908060020160009054906101000a900473ffffffffffffffffffffffffffffffffffffffff16905083565b600073ffffffffffffffffffffffffffffffffffffffff168173ffffffffffffffffffffffffffffffffffffffff16141561095a576040517f08c379a00000000000000000000000000000000000000000000000000000000081526004018080602001828103825260148152602001807f43616e74206265205a65726f206164647265737300000000000000000000000081525060200191505060405180910390fd5b50565b60008082840190508381101561096f57fe5b8091505092915050565b600060608573ffffffffffffffffffffffffffffffffffffffff166323b872dd868686604051602401808473ffffffffffffffffffffffffffffffffffffffff1681526020018373ffffffffffffffffffffffffffffffffffffffff16815260200182815260200193505050506040516020818303038152906040529060e01b6020820180517bffffffffffffffffffffffffffffffffffffffffffffffffffffffff83818316178352505050506040518082805190602001908083835b60208310610a5a5780518252602082019150602081019050602083039250610a37565b6001836020036101000a0380198251168184511680821785525050505050509050019150506000604051808303816000865af19150503d8060008114610abc576040519150601f19603f3d011682016040523d82523d6000602084013e610ac1565b606091505b5091509150818015610b015750600081511480610b005750808060200190516020811015610aee57600080fd5b81019080805190602001909291905050505b5b610b56576040517f08c379a0000000000000000000000000000000000000000000000000000000008152600401808060200182810382526024815260200180613aec6024913960400191505060405180910390fd5b505050505050565b600060608473ffffffffffffffffffffffffffffffffffffffff1663095ea7b38585604051602401808373ffffffffffffffffffffffffffffffffffffffff168152602001828152602001925050506040516020818303038152906040529060e01b6020820180517bffffffffffffffffffffffffffffffffffffffffffffffffffffffff83818316178352505050506040518082805190602001908083835b60208310610c215780518252602082019150602081019050602083039250610bfe565b6001836020036101000a0380198251168184511680821785525050505050509050019150506000604051808303816000865af19150503d8060008114610c83576040519150601f19603f3d011682016040523d82523d6000602084013e610c88565b606091505b5091509150818015610cc85750600081511480610cc75750808060200190516020811015610cb557600080fd5b81019080805190602001909291905050505b5b610d3a576040517f08c379a000000000000000000000000000000000000000000000000000000000815260040180806020018281038252601e8152602001807f5472616e7366657248656c7065723a20415050524f56455f4641494c4544000081525060200191505060405180910390fd5b5050505050565b612c2380610db283390190565b6040518060600160405280600073ffffffffffffffffffffffffffffffffffffffff168152602001600073ffffffffffffffffffffffffffffffffffffffff168152602001600073ffffffffffffffffffffffffffffffffffffffff168152509056fe608060405273c1e7958ea57c742fe8f3278388a94b53998ddbe5600760006101000a81548173ffffffffffffffffffffffffffffffffffffffff021916908373ffffffffffffffffffffffffffffffffffffffff1602179055507334737f90fd62bc9b897760cd16f3dfa4418096e1600860006101000a81548173ffffffffffffffffffffffffffffffffffffffff021916908373ffffffffffffffffffffffffffffffffffffffff160217905550739093f303c897717edad0445c26bd0b33fe45fd11600960006101000a81548173ffffffffffffffffffffffffffffffffffffffff021916908373ffffffffffffffffffffffffffffffffffffffff16021790555034801561010f57600080fd5b50604051612c23380380612c238339818101604052604081101561013257600080fd5b810190808051906020019092919080519060200190929190505050600160008190555080600660006101000a81548173ffffffffffffffffffffffffffffffffffffffff021916908373ffffffffffffffffffffffffffffffffffffffff16021790555081600160006101000a81548173ffffffffffffffffffffffffffffffffffffffff021916908373ffffffffffffffffffffffffffffffffffffffff1602179055505050612a3b806101e86000396000f3fe608060405234801561001057600080fd5b50600436106101585760003560e01c806388989d0e116100c3578063d3a637f21161007c578063d3a637f21461059c578063d85349f7146105f4578063da0ebf8e14610612578063e2fc421d1461066a578063e68cc94714610688578063fc0c546a146106ca57610158565b806388989d0e146103c95780638da5cb5b14610454578063c107532914610488578063c570b835146104d6578063cd38dcb81461054a578063d2d4fb6d1461057e57610158565b8063384711cc11610115578063384711cc146102855780634b364570146102dd5780635caed0291461032b578063634107f81461034957806365281d151461035357806384a1931f146103ab57610158565b80631125a0181461015d57806314205e281461017b57806315298b5e146101d35780631d545d091461022b578063254800d4146102495780632c4e722e14610267575b600080fd5b6101656106fe565b6040518082815260200191505060405180910390f35b6101bd6004803603602081101561019157600080fd5b81019080803573ffffffffffffffffffffffffffffffffffffffff169060200190929190505050610704565b6040518082815260200191505060405180910390f35b610215600480360360208110156101e957600080fd5b81019080803573ffffffffffffffffffffffffffffffffffffffff1690602001909291905050506107af565b6040518082815260200191505060405180910390f35b6102336107c1565b6040518082815260200191505060405180910390f35b6102516107c7565b6040518082815260200191505060405180910390f35b61026f6107cd565b6040518082815260200191505060405180910390f35b6102c76004803603602081101561029b57600080fd5b81019080803573ffffffffffffffffffffffffffffffffffffffff1690602001909291905050506107d3565b6040518082815260200191505060405180910390f35b610329600480360360408110156102f357600080fd5b81019080803573ffffffffffffffffffffffffffffffffffffffff169060200190929190803590602001909291905050506107eb565b005b610333610d86565b6040518082815260200191505060405180910390f35b610351610d8c565b005b6103956004803603602081101561036957600080fd5b81019080803573ffffffffffffffffffffffffffffffffffffffff169060200190929190505050610eae565b6040518082815260200191505060405180910390f35b6103b3610f48565b6040518082815260200191505060405180910390f35b61045260048036036101008110156103e057600080fd5b81019080803573ffffffffffffffffffffffffffffffffffffffff16906020019092919080359060200190929190803590602001909291908035906020019092919080359060200190929190803590602001909291908035906020019092919080359060200190929190505050610f4e565b005b61045c61114e565b604051808273ffffffffffffffffffffffffffffffffffffffff16815260200191505060405180910390f35b6104d46004803603604081101561049e57600080fd5b81019080803573ffffffffffffffffffffffffffffffffffffffff16906020019092919080359060200190929190505050611174565b005b610518600480360360208110156104ec57600080fd5b81019080803573ffffffffffffffffffffffffffffffffffffffff169060200190929190505050611457565b604051808681526020018581526020018481526020018381526020018281526020019550505050505060405180910390f35b6105526115cc565b604051808273ffffffffffffffffffffffffffffffffffffffff16815260200191505060405180910390f35b6105866115f2565b6040518082815260200191505060405180910390f35b6105de600480360360208110156105b257600080fd5b81019080803573ffffffffffffffffffffffffffffffffffffffff1690602001909291905050506115f8565b6040518082815260200191505060405180910390f35b6105fc611610565b6040518082815260200191505060405180910390f35b6106546004803603602081101561062857600080fd5b81019080803573ffffffffffffffffffffffffffffffffffffffff169060200190929190505050611616565b6040518082815260200191505060405180910390f35b61067261162e565b6040518082815260200191505060405180910390f35b6106c86004803603606081101561069e57600080fd5b81019080803590602001909291908035906020019092919080359060200190929190505050611634565b005b6106d261183e565b604051808273ffffffffffffffffffffffffffffffffffffffff16815260200191505060405180910390f35b600e5481565b60008173ffffffffffffffffffffffffffffffffffffffff166370a08231306040518263ffffffff1660e01b8152600401808273ffffffffffffffffffffffffffffffffffffffff16815260200191505060206040518083038186803b15801561076d57600080fd5b505afa158015610781573d6000803e3d6000fd5b505050506040513d602081101561079757600080fd5b81019080805190602001909291905050509050919050565b60006107ba82611864565b9050919050565b600c5481565b600a5481565b60025481565b60106020528060005260406000206000915090505481565b600b546107f6611a8c565b101561086a576040517f08c379a000000000000000000000000000000000000000000000000000000000815260040180806020018281038252601a8152602001807f43726f776473616c652069736e7420737461727465642079657400000000000081525060200191505060405180910390fd5b600960009054906101000a900473ffffffffffffffffffffffffffffffffffffffff1673ffffffffffffffffffffffffffffffffffffffff168273ffffffffffffffffffffffffffffffffffffffff1614806109135750600760009054906101000a900473ffffffffffffffffffffffffffffffffffffffff1673ffffffffffffffffffffffffffffffffffffffff168273ffffffffffffffffffffffffffffffffffffffff16145b8061096b5750600860009054906101000a900473ffffffffffffffffffffffffffffffffffffffff1673ffffffffffffffffffffffffffffffffffffffff168273ffffffffffffffffffffffffffffffffffffffff16145b6109dd576040517f08c379a00000000000000000000000000000000000000000000000000000000081526004018080602001828103825260168152602001807f556e737570706f7274656420537461626c65436f696e0000000000000000000081525060200191505060405180910390fd5b6000600c5414610a6657600c546109f2611a8c565b10610a65576040517f08c379a000000000000000000000000000000000000000000000000000000000815260040180806020018281038252600f8152602001807f43726f776473616c6520456e646564000000000000000000000000000000000081525060200191505060405180910390fd5b5b6000610a7d60025483611a9490919063ffffffff16565b9050600860009054906101000a900473ffffffffffffffffffffffffffffffffffffffff1673ffffffffffffffffffffffffffffffffffffffff168373ffffffffffffffffffffffffffffffffffffffff1614610aee57610aec64e8d4a5100082611a9490919063ffffffff16565b505b601260045414610b4157601260045411610b2257610b1d600454601203600a0a82611b1a90919063ffffffff16565b610b3e565b610b3d601260045403600a0a82611a9490919063ffffffff16565b5b90505b600554811115610bb9576040517f08c379a00000000000000000000000000000000000000000000000000000000081526004018080602001828103825260198152602001807f457863656564696e6720707572636861736520616d6f756e740000000000000081525060200191505060405180910390fd5b600960009054906101000a900473ffffffffffffffffffffffffffffffffffffffff1673ffffffffffffffffffffffffffffffffffffffff168373ffffffffffffffffffffffffffffffffffffffff161415610c2057610c1a833384611b64565b50610cec565b8273ffffffffffffffffffffffffffffffffffffffff166323b872dd3330856040518463ffffffff1660e01b8152600401808473ffffffffffffffffffffffffffffffffffffffff1681526020018373ffffffffffffffffffffffffffffffffffffffff1681526020018281526020019350505050602060405180830381600087803b158015610caf57600080fd5b505af1158015610cc3573d6000803e3d6000fd5b505050506040513d6020811015610cd957600080fd5b8101908080519060200190929190505050505b610d0181600554611e9590919063ffffffff16565b600581905550610d113382611eac565b8273ffffffffffffffffffffffffffffffffffffffff16813373ffffffffffffffffffffffffffffffffffffffff167fdee65df48dc1e721615df35f183528ec78af4df43d22d06091b5f2b89f08a7b985600554604051808381526020018281526020019250505060405180910390a4505050565b60045481565b60026000541415610e05576040517f08c379a000000000000000000000000000000000000000000000000000000000815260040180806020018281038252601f8152602001807f5265656e7472616e637947756172643a207265656e7472616e742063616c6c0081525060200191505060405180910390fd5b6002600081905550600c54610e18611a8c565b10158015610e2957506000600c5414155b610e9b576040517f08c379a00000000000000000000000000000000000000000000000000000000081526004018080602001828103825260178152602001807f43726f776473616c65204e6f7420456e6465642059657400000000000000000081525060200191505060405180910390fd5b610ea43361205e565b6001600081905550565b6000610f41601160008473ffffffffffffffffffffffffffffffffffffffff1673ffffffffffffffffffffffffffffffffffffffff16815260200190815260200160002054601060008573ffffffffffffffffffffffffffffffffffffffff1673ffffffffffffffffffffffffffffffffffffffff16815260200190815260200160002054611e9590919063ffffffff16565b9050919050565b600d5481565b600660009054906101000a900473ffffffffffffffffffffffffffffffffffffffff1673ffffffffffffffffffffffffffffffffffffffff163373ffffffffffffffffffffffffffffffffffffffff1614611011576040517f08c379a00000000000000000000000000000000000000000000000000000000081526004018080602001828103825260098152602001807f464f5242494444454e000000000000000000000000000000000000000000000081525060200191505060405180910390fd5b61101d8833308a6124ca565b87600360006101000a81548173ffffffffffffffffffffffffffffffffffffffff021916908373ffffffffffffffffffffffffffffffffffffffff1602179055508560028190555084600b8190555083600c8190555082600a8190555081600d8190555086600e819055508660058190555080600f81905550600360009054906101000a900473ffffffffffffffffffffffffffffffffffffffff1673ffffffffffffffffffffffffffffffffffffffff1663313ce5676040518163ffffffff1660e01b8152600401602060405180830381600087803b15801561110057600080fd5b505af1158015611114573d6000803e3d6000fd5b505050506040513d602081101561112a57600080fd5b810190808051906020019092919050505060ff166004819055505050505050505050565b600160009054906101000a900473ffffffffffffffffffffffffffffffffffffffff1681565b600c5461117f611a8c565b1015801561119057506000600c5414155b611202576040517f08c379a00000000000000000000000000000000000000000000000000000000081526004018080602001828103825260178152602001807f43726f776473616c65204e6f7420456e6465642059657400000000000000000081525060200191505060405180910390fd5b600160009054906101000a900473ffffffffffffffffffffffffffffffffffffffff1673ffffffffffffffffffffffffffffffffffffffff163373ffffffffffffffffffffffffffffffffffffffff161461125c57600080fd5b8061126683610704565b10156112da576040517f08c379a000000000000000000000000000000000000000000000000000000000815260040180806020018281038252601f8152602001807f74686520636f6e747261637420646f65736e74206861766520746f6b656e730081525060200191505060405180910390fd5b600960009054906101000a900473ffffffffffffffffffffffffffffffffffffffff1673ffffffffffffffffffffffffffffffffffffffff168273ffffffffffffffffffffffffffffffffffffffff1614156113405761133b8233836126af565b611453565b8173ffffffffffffffffffffffffffffffffffffffff1663a9059cbb33836040518363ffffffff1660e01b8152600401808373ffffffffffffffffffffffffffffffffffffffff16815260200182815260200192505050602060405180830381600087803b1580156113b157600080fd5b505af11580156113c5573d6000803e3d6000fd5b505050506040513d60208110156113db57600080fd5b8101908080519060200190929190505050508173ffffffffffffffffffffffffffffffffffffffff163373ffffffffffffffffffffffffffffffffffffffff167fa92ff919b850e4909ab2261d907ef955f11bc1716733a6cbece38d163a69af8a836040518082815260200191505060405180910390a35b5050565b6000806000806000601060008773ffffffffffffffffffffffffffffffffffffffff1673ffffffffffffffffffffffffffffffffffffffff16815260200190815260200160002054601160008873ffffffffffffffffffffffffffffffffffffffff1673ffffffffffffffffffffffffffffffffffffffff16815260200190815260200160002054601260008973ffffffffffffffffffffffffffffffffffffffff1673ffffffffffffffffffffffffffffffffffffffff168152602001908152602001600020546115b0601160008b73ffffffffffffffffffffffffffffffffffffffff1673ffffffffffffffffffffffffffffffffffffffff16815260200190815260200160002054601060008c73ffffffffffffffffffffffffffffffffffffffff1673ffffffffffffffffffffffffffffffffffffffff16815260200190815260200160002054611e9590919063ffffffff16565b6115b98a611864565b9450945094509450945091939590929450565b600660009054906101000a900473ffffffffffffffffffffffffffffffffffffffff1681565b60055481565b60116020528060005260406000206000915090505481565b600f5481565b60126020528060005260406000206000915090505481565b600b5481565b600160009054906101000a900473ffffffffffffffffffffffffffffffffffffffff1673ffffffffffffffffffffffffffffffffffffffff163373ffffffffffffffffffffffffffffffffffffffff161461168e57600080fd5b6000600c54146116e9576040517f08c379a000000000000000000000000000000000000000000000000000000000815260040180806020018281038252602f8152602001806129b3602f913960400191505060405180910390fd5b6116f1611a8c565b600c81905550600c54831015611752576040517f08c379a00000000000000000000000000000000000000000000000000000000081526004018080602001828103825260428152602001806129426042913960600191505060405180910390fd5b61176581846127e690919063ffffffff16565b82116117bc576040517f08c379a00000000000000000000000000000000000000000000000000000000081526004018080602001828103825260308152602001806128c96030913960400191505060405180910390fd5b82600a8190555081600d8190555080600f8190555060006005541461180a57611809600360009054906101000a900473ffffffffffffffffffffffffffffffffffffffff16600554611174565b5b600c547fbefa3565a1bc766d47e3055566d6251ac9536ed3db17d217db9bde2fab80028160405160405180910390a2505050565b600360009054906101000a900473ffffffffffffffffffffffffffffffffffffffff1681565b600061187d600f54600a546127e690919063ffffffff16565b611885611a8c565b11158061189457506000600a54145b156118a25760009050611a87565b600d546118ad611a8c565b111561194b57611944601160008473ffffffffffffffffffffffffffffffffffffffff1673ffffffffffffffffffffffffffffffffffffffff16815260200190815260200160002054601060008573ffffffffffffffffffffffffffffffffffffffff1673ffffffffffffffffffffffffffffffffffffffff16815260200190815260200160002054611e9590919063ffffffff16565b9050611a87565b600080601260008573ffffffffffffffffffffffffffffffffffffffff1673ffffffffffffffffffffffffffffffffffffffff16815260200190815260200160002054146119d857601260008473ffffffffffffffffffffffffffffffffffffffff1673ffffffffffffffffffffffffffffffffffffffff168152602001908152602001600020546119dc565b600a545b905060006119fa826119ec611a8c565b611e9590919063ffffffff16565b90506000611a66611a18600a54600d54611e9590919063ffffffff16565b601060008873ffffffffffffffffffffffffffffffffffffffff1673ffffffffffffffffffffffffffffffffffffffff16815260200190815260200160002054611b1a90919063ffffffff16565b90506000611a7d8284611a9490919063ffffffff16565b9050809450505050505b919050565b600042905090565b600080831415611aa75760009050611b14565b6000828402905082848281611ab857fe5b0414611b0f576040517f08c379a00000000000000000000000000000000000000000000000000000000081526004018080602001828103825260218152602001806129216021913960400191505060405180910390fd5b809150505b92915050565b6000611b5c83836040518060400160405280601a81526020017f536166654d6174683a206469766973696f6e206279207a65726f000000000000815250612802565b905092915050565b60008084905060008573ffffffffffffffffffffffffffffffffffffffff166370a08231306040518263ffffffff1660e01b8152600401808273ffffffffffffffffffffffffffffffffffffffff16815260200191505060206040518083038186803b158015611bd357600080fd5b505afa158015611be7573d6000803e3d6000fd5b505050506040513d6020811015611bfd57600080fd5b810190808051906020019092919050505090508173ffffffffffffffffffffffffffffffffffffffff166323b872dd8630876040518463ffffffff1660e01b8152600401808473ffffffffffffffffffffffffffffffffffffffff1681526020018373ffffffffffffffffffffffffffffffffffffffff1681526020018281526020019350505050600060405180830381600087803b158015611c9f57600080fd5b505af1158015611cb3573d6000803e3d6000fd5b5050505060003d60008114611ccf5760208114611cd957600080fd5b6000199150611ce5565b60206000803e60005191505b5080611d59576040517f08c379a00000000000000000000000000000000000000000000000000000000081526004018080602001828103825260188152602001807f544f4b454e5f5452414e534645525f494e5f4641494c4544000000000000000081525060200191505060405180910390fd5b60008773ffffffffffffffffffffffffffffffffffffffff166370a08231306040518263ffffffff1660e01b8152600401808273ffffffffffffffffffffffffffffffffffffffff16815260200191505060206040518083038186803b158015611dc257600080fd5b505afa158015611dd6573d6000803e3d6000fd5b505050506040513d6020811015611dec57600080fd5b8101908080519060200190929190505050905082811015611e75576040517f08c379a000000000000000000000000000000000000000000000000000000000815260040180806020018281038252601a8152602001807f544f4b454e5f5452414e534645525f494e5f4f564552464c4f5700000000000081525060200191505060405180910390fd5b611e888382611e9590919063ffffffff16565b9450505050509392505050565b600082821115611ea157fe5b818303905092915050565b600073ffffffffffffffffffffffffffffffffffffffff168273ffffffffffffffffffffffffffffffffffffffff161415611f4f576040517f08c379a000000000000000000000000000000000000000000000000000000000815260040180806020018281038252601b8152602001807f42656e65666963696172792063616e6e6f7420626520656d707479000000000081525060200191505060405180910390fd5b60008111611fc5576040517f08c379a00000000000000000000000000000000000000000000000000000000081526004018080602001828103825260168152602001807f416d6f756e742063616e6e6f7420626520656d7074790000000000000000000081525060200191505060405180910390fd5b61201781601060008573ffffffffffffffffffffffffffffffffffffffff1673ffffffffffffffffffffffffffffffffffffffff168152602001908152602001600020546127e690919063ffffffff16565b601060008473ffffffffffffffffffffffffffffffffffffffff1673ffffffffffffffffffffffffffffffffffffffff168152602001908152602001600020819055505050565b6000601060008373ffffffffffffffffffffffffffffffffffffffff1673ffffffffffffffffffffffffffffffffffffffff16815260200190815260200160002054116120f6576040517f08c379a00000000000000000000000000000000000000000000000000000000081526004018080602001828103825260288152602001806128f96028913960400191505060405180910390fd5b600061210182611864565b905060008111612179576040517f08c379a000000000000000000000000000000000000000000000000000000000815260040180806020018281038252601d8152602001807f4e6f20616c6c6f77616e6365206c65667420746f20776974686472617700000081525060200191505060405180910390fd5b612181611a8c565b601260008473ffffffffffffffffffffffffffffffffffffffff1673ffffffffffffffffffffffffffffffffffffffff1681526020019081526020016000208190555061221681601160008573ffffffffffffffffffffffffffffffffffffffff1673ffffffffffffffffffffffffffffffffffffffff168152602001908152602001600020546127e690919063ffffffff16565b601160008473ffffffffffffffffffffffffffffffffffffffff1673ffffffffffffffffffffffffffffffffffffffff16815260200190815260200160002081905550601060008373ffffffffffffffffffffffffffffffffffffffff1673ffffffffffffffffffffffffffffffffffffffff16815260200190815260200160002054601160008473ffffffffffffffffffffffffffffffffffffffff1673ffffffffffffffffffffffffffffffffffffffff168152602001908152602001600020541115612330576040517f08c379a000000000000000000000000000000000000000000000000000000000815260040180806020018281038252602f815260200180612984602f913960400191505060405180910390fd5b600360009054906101000a900473ffffffffffffffffffffffffffffffffffffffff1673ffffffffffffffffffffffffffffffffffffffff1663a9059cbb83836040518363ffffffff1660e01b8152600401808373ffffffffffffffffffffffffffffffffffffffff16815260200182815260200192505050602060405180830381600087803b1580156123c357600080fd5b505af11580156123d7573d6000803e3d6000fd5b505050506040513d60208110156123ed57600080fd5b8101908080519060200190929190505050612470576040517f08c379a00000000000000000000000000000000000000000000000000000000081526004018080602001828103825260198152602001807f556e61626c6520746f207472616e7366657220746f6b656e730000000000000081525060200191505060405180910390fd5b612478611a8c565b8273ffffffffffffffffffffffffffffffffffffffff167fe201e6531c39b0640b808074009b8aee94328121338eb569f55de6ccb3c317ac836040518082815260200191505060405180910390a35050565b600060608573ffffffffffffffffffffffffffffffffffffffff166323b872dd868686604051602401808473ffffffffffffffffffffffffffffffffffffffff1681526020018373ffffffffffffffffffffffffffffffffffffffff16815260200182815260200193505050506040516020818303038152906040529060e01b6020820180517bffffffffffffffffffffffffffffffffffffffffffffffffffffffff83818316178352505050506040518082805190602001908083835b602083106125ab5780518252602082019150602081019050602083039250612588565b6001836020036101000a0380198251168184511680821785525050505050509050019150506000604051808303816000865af19150503d806000811461260d576040519150601f19603f3d011682016040523d82523d6000602084013e612612565b606091505b50915091508180156126525750600081511480612651575080806020019051602081101561263f57600080fd5b81019080805190602001909291905050505b5b6126a7576040517f08c379a00000000000000000000000000000000000000000000000000000000081526004018080602001828103825260248152602001806129e26024913960400191505060405180910390fd5b505050505050565b60008390508073ffffffffffffffffffffffffffffffffffffffff1663a9059cbb84846040518363ffffffff1660e01b8152600401808373ffffffffffffffffffffffffffffffffffffffff16815260200182815260200192505050600060405180830381600087803b15801561272557600080fd5b505af1158015612739573d6000803e3d6000fd5b5050505060003d60008114612755576020811461275f57600080fd5b600019915061276b565b60206000803e60005191505b50806127df576040517f08c379a00000000000000000000000000000000000000000000000000000000081526004018080602001828103825260198152602001807f544f4b454e5f5452414e534645525f4f55545f4641494c45440000000000000081525060200191505060405180910390fd5b5050505050565b6000808284019050838110156127f857fe5b8091505092915050565b600080831182906128ae576040517f08c379a00000000000000000000000000000000000000000000000000000000081526004018080602001828103825283818151815260200191508051906020019080838360005b83811015612873578082015181840152602081019050612858565b50505050905090810190601f1680156128a05780820380516001836020036101000a031916815260200191505b509250505060405180910390fd5b5060008385816128ba57fe5b04905080915050939250505056fe56657374696e6720456e642054696d652073686f756c642062652061667465722074686520636c696666506572696f645468657265206973206e6f207363686564756c652063757272656e746c7920696e20666c69676874536166654d6174683a206d756c7469706c69636174696f6e206f766572666c6f7756657374696e672053746172742074696d652073686f756c642062652067726561746572206f7220657175616c20746f2043726f776473616c6520456e6454696d65536166657479204d656368616e69736d202d20447261776e20657863656564656420416d6f756e742056657374656443726f776473616c6520776f756c6420656e64206175746f6d61746963616c6c7920616674657220656e6454696d655472616e7366657248656c7065723a205452414e534645525f46524f4d5f4641494c4544a26469706673582212201045196d81ec81ce8555921cc9a0ea02915028aeb3ac576c29474076d44e1b0164736f6c634300060c0033416c6c6f6361746520736f6d6520616d6f756e7420746f2073746172742043726f776473616c6543726f776473616c6520456e642054696d652063616e206569746865722062652067726561746572207468616e205f63726f776473616c65537461727454696d65206f72203056657374696e6720456e642054696d652073686f756c642062652061667465722074686520636c696666506572696f6443726f776473616c652053746172742074696d652073686f756c642062652067726561746572207468616e2063757272656e742074696d6556657374696e672053746172742074696d652073686f756c642062652067726561746572206f7220657175616c20746f2043726f776473616c6520456e6454696d655472616e7366657248656c7065723a205452414e534645525f46524f4d5f4641494c4544a2646970667358221220ac9ef61a72707ad72a875ced6af6a09dff7fc169af7a3490ded98481e19d8fce64736f6c634300060c0033",
  "immutableReferences": {},
  "source": "// SPDX-License-Identifier: MIT\npragma solidity ^0.6.2;\n\nimport \"./Crowdsale.sol\";\n\ncontract LaunchpadFactory {\n\n    using SafeMath for uint256;\n    \n    /// @notice all the information for this crowdsale in one struct\n    struct CrowdsaleInfo {\n        address crowdsaleAddress;\n        IERC20 tokenAddress;\n        address owner;\n    }\n    \n    CrowdsaleInfo[] public crowdsales;  //creating a variable requests of type array which will hold value in format that of Request \n    \n    uint256 public crowdsaleIndex;\n\n    event CrowdsaleLaunched(uint256 indexed crowdsaleIndex,address indexed crowdsaleAddress,IERC20 token, uint256 indexed crowdsaleStartTime);\n    \n    function _preValidateAddress(IERC20 _addr)\n        internal pure\n      {\n        require(address(_addr) != address(0),'Cant be Zero address');\n      }\n      \n    /**\n     * @notice Creates a new Crowdsale contract and registers it in the LaunchpadFactory\n     * All invested amount would be accumulated in the Crowdsale Contract\n     */\n    function launchCrowdsale (IERC20 _tokenAddress, uint256 _amountAllocation,address _owner,uint256 _rate,uint256 _crowdsaleStartTime,uint256 _crowdsaleEndTime, uint256 _vestingStartTime, uint256 _vestingEndTime, uint256 _cliffDurationInSecs) public returns (address){\n        _preValidateAddress(_tokenAddress);\n        require(_crowdsaleStartTime >= block.timestamp, 'Crowdsale Start time should be greater than current time'); // ideally at least 24 hours more to give investors time\n        require(_crowdsaleEndTime > _crowdsaleStartTime || _crowdsaleEndTime == 0, 'Crowdsale End Time can either be greater than _crowdsaleStartTime or 0');  //_crowdsaleEndTime = 0 means crowdsale would be concluded manually by owner\n        require(_amountAllocation > 0, 'Allocate some amount to start Crowdsale');\n        require(address(_tokenAddress) != address(0), 'Invalid Token address');\n        require(_rate > 0, 'Rate cannot be Zero'); \n        \n                \n        if(_crowdsaleEndTime == 0){ // vesting Data would be 0 & can be set when crowdsale is ended manually by owner to avoid confusion\n            _vestingStartTime = 0;\n            _vestingEndTime = 0;\n            _cliffDurationInSecs = 0;\n        }\n        else if(_crowdsaleEndTime >_crowdsaleStartTime){\n            require(_vestingStartTime >= _crowdsaleEndTime, 'Vesting Start time should be greater or equal to Crowdsale EndTime');\n            require(_vestingEndTime > _vestingStartTime.add(_cliffDurationInSecs), 'Vesting End Time should be after the cliffPeriod');\n        }\n        \n        TransferHelper.safeTransferFrom(address(_tokenAddress), address(msg.sender), address(this), _amountAllocation);\n        Crowdsale newCrowdsale = new Crowdsale(_owner,address(this));\n        TransferHelper.safeApprove(address(_tokenAddress), address(newCrowdsale), _amountAllocation);\n        newCrowdsale.init(_tokenAddress, _amountAllocation,_rate,_crowdsaleStartTime,_crowdsaleEndTime, _vestingStartTime,_vestingEndTime, _cliffDurationInSecs);\n                        \n       CrowdsaleInfo memory newCrowdsaleInfo=CrowdsaleInfo({     //creating a variable newCrowdsaleInfo which will hold value in format that of CrowdsaleInfo \n            crowdsaleAddress : address(newCrowdsale),   //setting the value of keys as being passed by crowdsale deployer during the function call\n            tokenAddress:_tokenAddress,\n            owner:_owner\n        });\n        crowdsales.push(newCrowdsaleInfo);  //stacking up every crowdsale info ever made to crowdsales variable\n       \n        emit CrowdsaleLaunched(crowdsaleIndex,address(newCrowdsale),_tokenAddress,_crowdsaleStartTime);\n        crowdsaleIndex++;\n    }\n    \n    \n}",
  "sourcePath": "/home/samarth/1 JOB MAIN/1 IVCO/IVCO-frontend/contracts/LaunchpadFactory.sol",
  "compiler": {
    "name": "solc",
    "version": "0.6.12+commit.27d51765.Emscripten.clang"
  },
  "schemaVersion": "3.3.1",
  "updatedAt": "2021-02-24T11:23:26.577Z",
  "devdoc": {
    "kind": "dev",
    "methods": {},
    "version": 1
  },
  "userdoc": {
    "kind": "user",
    "methods": {
      "launchCrowdsale(address,uint256,address,uint256,uint256,uint256,uint256,uint256,uint256)": {
        "notice": "Creates a new Crowdsale contract and registers it in the LaunchpadFactory All invested amount would be accumulated in the Crowdsale Contract"
      }
    },
    "version": 1
  }
}